:020000040000FA
:020000000528D1
:08000800090081308400813001
:1000100080000B3084000030800007309F00853066
:10002000840003308000863084000C30800085011D
:100030008601FA30A2000130A3000130A400FA309A
:10004000A5000230A6000230A700FA30A800053053
:10005000A9000430B000FA30B100FA30B200283004
:10006000B3000030A0000030A100402049206320F0
:100070006C2086208F20A920B220BD20D0203528DA
:10008000051C4428472808002010211008002014CF
:100090000800201C4E28A20B08002114FA30A200F0
:1000A0000800A30B08000130A300A40B08000130D6
:1000B000A400061C5D2860280800061486140800A9
:1000C000061086100800851C67286A280800A01002
:1000D000A1100800A0140800A01C7128A50B08009E
:1000E000A114FA30A5000800A60B08000230A600F3
:1000F000A70B08000230A700061C802883280800F0
:10010000061486140800061086100800061D8A28AA
:100110008D28080020112111080020150800201D3D
:100120009428A80B08002115FA30A8000800A90B94
:1001300008000530A900B00B08000430B000061C10
:10014000A328A628080006148614080006108610A6
:100150000800861DAD28B0280800A011A1110800D4
:10016000A0150800A01DB728B10B0800A115FA3092
:10017000B10008000614861408002118C828A11828
:10018000CA282119CC28A119CE28061086100800EB
:10019000512008007420080097200800BA200800A9
:1001A000833081000B1DD2280B11833081000800A1
:02400E00501E42
:00000001FF
